:020000040008F2
:1000000018F09FE518F09FE518F09FE518F09FE5C0
:1000100018F09FE50000A0E118F09FE518F09FE5BB
:1000200040000800DC110800D8110800D4110800B5
:10003000D011080000000000CC050100300F0800BE
:1000400078009FE50110A0E3041480E50010A0E310
:10005000081480E5F410A0E30C1480E560009FE52F
:10006000DBF021E300D0A0E1040040E2D7F021E37F
:1000700000D0A0E1040040E2D1F021E300D0A0E1F3
:10008000040040E2D2F021E300D0A0E1800040E291
:10009000D3F021E300D0A0E1040040E210F021E31E
:1000A00000D0A0E11C009FE5010010E318E09F05CF
:1000B00018E09F1510FF2FE1FEFFFFEAFEE7C046A4
:1000C0000000FFFFD0040100710E0800B800080016
:1000D000BD0008000A0D2A2A2A54696D656F7574DF
:1000E00021205374617274696E6720757365722084
:1000F0006170702A2A2A000D0A2A2A2A2A2A2A2A04
:100100002A2A2A2A2A2A2A2A2A2A2A2A2A2A2A2A4F
:100110002A2A2A2A2A2A2A2A2A2A0D0A0A52656102
:10012000647920403131353230302062617564208D
:090130006E2C382C31200D0A0060
:10013C00496E76616C696420636861726163746591
:0A014C007220636F756E743A200094
:100158000D0A52657374617274696E672E2E2E21B2
:10016800000D0A537563636573732E2E2E21204C80
:100178006F6164206865782066696C650D0A000DFA
:100188000A27426F6F74206D6F646527204572617E
:1001980073696E6720666C6173682E2E2E21200DA0
:1001A8000A506C65617365207761697421000A0DD6
:1001B800436865636B73756D204572726F72000AD0
:0B01C8000D435243204572726F72001D
:1001D400000000000000000000000000000000001B
:1001E400D0040100410501000000000000000000EF
:1001F400D0040100D404010040200800E004010000
:10020400E4040100002000F0E6040100E804010019
:1002140034120000ED040100EF04010003AB000000
:10022400F0040100F1040100100000004405010085
:1002340068050100011C05480160052104480160AE
:100244000448006801210842FAD0704710F8FFFF03
:1002540008F8FFFF00F8FFFF68050100A005010092
:10026400021C101C0204120C07480260081C010442
:10027400090C064801600221054801600548006830
:1002840001210842FAD0704710F8FFFF0CF8FFFF75
:1002940008F8FFFF00F8FFFFA0050100CC050100EE
:1002A400011C0648016001210548016005480068F9
:1002B40001210842FAD004480068704710F8FFFF93
:1002C40008F8FFFF00F8FFFF0CF8FFFFCC05010062
:1002D40004080100FF5F2DE90060A0E30050A0E3E3
:1002E400015AA0E314029FE5000090E5040010E326
:1002F4008000000A7B0000EA00029FE5000090E510
:10030400040010E3FBFFFF0AF4019FE5000090E501
:10031400230050E30400001AE4019FE5004090E547
:10032400044CA0E1244CA0E1720000EAD0019FE556
:10033400000090E53A0050E30B00001AC0019FE56D
:10034400004090E5044CA0E1244CA0E1FF4004E20D
:100354000500A0E1015080E20410A0E1011CA0E12D
:10036400211CA0E1230100EB5E0000EA90019FE55F
:10037400000090E50A0050E30B00001A80019FE59D
:10038400004090E5044CA0E1244CA0E10F4004E2BD
:100394000500A0E1015080E20410A0E1011CA0E1ED
:1003A400211CA0E1130100EB4E0000EA50019FE57F
:1003B400000090E50D0050E30B00001A40019FE59A
:1003C400004090E5044CA0E1244CA0E10F4004E27D
:1003D4000500A0E1015080E20410A0E1011CA0E1AD
:1003E400211CA0E1030100EB3E0000EA10019FE59F
:1003F400000090E5300050E30300003A00019FE55F
:10040400000090E5390050E30F00009AF0009FE5EA
:10041400000090E5410050E30300003AE0009FE54E
:10042400000090E5460050E30700009AD0009FE5E5
:10043400000090E5610050E31E00003AC0009FE513
:10044400000090E5660050E31A00008AB0009FE5C2
:10045400000090E5750000EB007CA0E1277CA0E1A2
:100464000772A0E1077CA0E1277CA0E18C009FE556
:10047400000090E5040010E3FBFFFF0A80009FE505
:10048400000090E5690000EB007087E0FF7007E270
:100494000740A0E10400A0E1001CA0E1211CA0E1B0
:1004A4000500A0E1D30000EB015085E20040A0E389
:1004B4000470A0E10B0000EA016086E2FF6006E23E
:1004C40040009FE57D0000EB0600A0E1000CA0E1E8
:1004D400200CA0E12C0000EB20009FE5000090E53B
:1004E400040010E3FBFFFF0A14009FE5000090E501
:1004F400230050E37FFFFF1AFF5FBDE804F05EE2D4
:100504000807FFFF0007FFFF3C0108000408010083
:1005140084080100011C081C0006000E0A2809DAE0
:1005240030310906090E012219480260081C000630
:10053400000E2CE0081C0006000E10280EDA081C21
:100544000006000E092809DD37310906090E0122CB
:100554000F480260081C0006000E18E0081C000684
:10056400000E3A2809D0081C0006000E0A2804D000
:10057400081C0006000E0D2806D100220448026063
:10058400081C0006000E02E0002201490A607047C0
:10059400D4040100840801000C09010000C09FE597
:1005A4001CFF2FE19108010010B5041C022116481C
:1005B4000160164916480160164915480160052076
:1005C40000F05AFA1448006820210842FAD0201C8E
:1005D4000006000E0F210840FFF7A0FF0106090ED8
:1005E4000E480160012000F047FA0A490C480160F6
:1005F40006490B480160052103480160012000F011
:100604003BFA10BC08BC18470407FFFF00000200B7
:1006140024F4FFFF000004001407FFFF0007FFFF9E
:1006240028F4FFFF0C0901002809010010B5041C7F
:10063400201C0006000E0009FFF7BAFF201C00066C
:10064400000EFFF7B5FF10BD28090100B80901002D
:1006540000C09FE51CFF2FE135090100011C081CA7
:100664000006000E302809DB081C0006000E39289D
:1006740004DC081C0006000E303830E0081C0006BC
:10068400000E412809DB081C0006000E462804DC85
:10069400081C0006000E373821E0081C0006000E76
:1006A400612809DB081C0006000E662804DC081C0F
:1006B4000006000E573812E0081C0006000E2A2817
:1006C40003D1081C0006000E09E0081C0006000EF9
:1006D4003A2803D1081C0006000E00E000207047F1
:1006E400B8090100380A010000C09FE51CFF2FE192
:1006F400C509010010B5041C0A2000F0C9F913490A
:100704001348016013491248016002211248016034
:1007140009E01248006820210842FAD0201C017820
:100724000F4801600134201C00780028F1D1012019
:1007340000F0AEF907490B4801600449094801601B
:1007440005210548016010BC08BC184700000200E0
:1007540024F4FFFF000004000407FFFF1407FFFF59
:100764000007FFFF28F4FFFF380A0100800A010098
:1007740070B400231C1C0E4A12E01D1C041C645D92
:1007840062400024151C0126354203D05208094D4D
:100794006A4000E052080134251C082DF2DB0133C5
:1007A4001D1C0E1CB542E8D3101C70BC7047C0461B
:1007B400FFFF000001A00000800A0100F00A010010
:1007C40000B5021C1349144801601449144801601F
:1007D40014480160032000F001F9101C124908407C
:1007E400000C00F0FBF8101C10490840000A00F04F
:1007F400F5F8101CFF21084000F0F0F8002000F08C
:10080400EDF8011C054A06480260081C0006000EAB
:1008140000BDC0460000040044F4FFFF0000800057
:1008240034F4FFFF38F4FFFF0000FF0000FF000076
:10083400F00A0100900B010000C09FE51CFF2FE1AE
:10084400FD0A010030B50C1C051C00F069F81949BB
:1008540019480160194A1A4802601A4801600220C6
:1008640000F0C0F8281C18490840000C00F0BAF841
:10087400281C16490840000A00F0B4F8281CFF217F
:10088400084000F0AFF8201C0006000E00F0AAF8A3
:1008940008490948016000F01FF80006000E01280D
:1008A400F9D00B4A0B4801685140016030BC08BCC8
:1008B4001847C0460000800034F4FFFF0000040025
:1008C40044F4FFFF38F4FFFF0000FF0000FF0000C6
:1008D4000000020030F4FFFF900B0100D80B010070
:1008E40000B50C490C4801600C490D4801600D48E5
:1008F4000160052000F07AF8002000F077F8011C70
:10090400064A07480260081C0006000E0121084040
:1009140000BDC0460000040044F4FFFF0000800056
:1009240034F4FFFF38F4FFFFD80B01000C0C010076
:1009340000B50749074801600749084801600848AD
:100944000160062000F056F803490448016000BD28
:100954000000040044F4FFFF0000800034F4FFFFB3
:1009640038F4FFFF0C0C01004C0C010000B50949E0
:100974000948016009490A4801600A480160502099
:1009840000F03CF8054906480160FF210648016073
:1009940000BDC0460000040044F4FFFF00008000D6
:1009A40034F4FFFF38F4FFFF6C03FFFF4C0C01002D
:1009B4009C0C010000B5FFF7C3FF0C490C48016013
:1009C4000C490D4801600D480160602000F01AF8E0
:1009D40008490948016002E0FF2109480160FFF766
:1009E4008BFF0006000E0128F6D000BD00000400B5
:1009F40044F4FFFF0000800034F4FFFF38F4FFFFED
:100A04006C03FFFF9C0C0100D00C0100011C081CAE
:100A14000106090E074801600748006801210840E3
:100A24000128F9D00448006808210842FAD0034894
:100A340000687047080AFFFF000AFFFF040AFFFF6F
:100A4400D00C0100000D010000B5084A08480168F7
:100A5400114301601E2000F03FF8044A0548016874
:100A6400114301601E2000F037F800BD00000200B1
:100A740034F4FFFF38F4FFFF000D0100300D0100D6
:100A840000B5084A08480168114301601E2000F0BF
:100A940027F8044A05480168114301601E2000F04C
:100AA4001FF800BD0000040064F4FFFF68F4FFFFBA
:100AB400300D0100600D010000B5084A08480168C6
:100AC400114301601E2000F00FF8044A0548016834
:100AD400114301601E2000F007F800BD000008006B
:100AE40064F4FFFF68F4FFFF600D0100880D01004E
:100AF40010B4002107E00022C0460132131C054C4B
:100B0400A342F9D30131031C0A1C9A42F3D310BC4B
:100B14007047C0461B0B0000880D01004C0E0100FD
:100B240030B500252048FFF719FEFFF75BFF1F4C87
:100B3400201CFFF7D3FB1E482418201C1D498842A3
:100B4400F6DB1D48FFF70AFE1C491D4801601D48DD
:100B540000682328FBD100251B491C4801600AE0DA
:100B64001B48007801280AD000F03CF8194A1A48BA
:100B7400016851400160164800780128F0D1154AF7
:100B840015480168514001601448FFF7E7FD0E4C19
:100B9400013C201C0028FBDC0421114801601048A2
:100BA4000160FEE730BDC046870108000020000058
:100BB4000002000000F80000690108000040000085
:100BC4000800FFFF0007FFFF00100000D804010029
:100BD400ED0401000000080060F4FFFF5801080064
:100BE4003002FFFF4C0E0100F40F010030B584B059
:100BF40000245E4C5E4900A810220B780370491C47
:100C0400401C521EF9D100252068FFF709FE041C80
:100C14000006000E3A2805D154480068554900F0F2
:100C2400E9F828E051490868021C01320A60FFF71C
:100C3400F7FD041C0006000E0D28F3D14B4908688B
:100C4400021C01320A60FFF7EBFD041C0006000ED3
:100C54000A28F3D145490868021C01320A60FFF7EB
:100C6400DFFD041C0006000E3A28F3D13F4800685B
:100C7400404900F0BFF83D49487E8875887E0002EF
:100C84003D4A10400004000C4881C87E031CFF202C
:100C940003401B041B0C081C0A300288D218028073
:100CA400087F48754A89131C1B0A887DC018FF23D6
:100CB4001A4080184A7D80180006000EC87500216D
:100CC4000DE00B1C294A2D48C05C0C1C00AB1855C8
:100CD4000B1C00A8C35CD07DC018D0750131284816
:100CE40000780A1C8242ECDB204CE17DC9430131CF
:100CF4000906090EE1752149095C21762149095C3F
:100D040009021D4A11400904090CE1811E49095CCC
:100D14000B1CFF210B401B041B0C211C0E310A88E9
:100D2400D2180A80051C0435291C1248FFF754FD0B
:100D3400A081207E011CE07D884211D10B4881896D
:100D4400C089884208D1094841890A1C807D011C58
:100D540000A800F01FF806E00C48FFF703FD02E0CE
:100D64000B48FFF7FFFC04B030BDC046D8040100B7
:100D7400D4010800F104010000FF0000F5040100A3
:100D8400EE040100F6040100F7040100C7010800A5
:100D9400B6010800F40F010054100100F0B5171C4F
:100DA4000E1C051C0020041C00233A1C12490A8056
:100DB400041C19E0211C281C40184078011C09025D
:100DC400221C281C805C031C5B181B041B0C0A4897
:100DD4000088191C0904090CFFF79AFA06480188CF
:100DE4000231054801800234301C0106090E201C22
:100DF4008842DFDBF0BDC046E0040100541001006E
:100E0400B4100100F0B50E1C051C81B00024281C90
:100E1400FFF70EFD031C281C0130FFF709FD00A994
:100E24000870281C0230FFF703FD071C181C00067D
:100E3400000E0D280AD100A800780A2806D1381C13
:100E44000006000E3A2801D1023509E0181C221CC4
:100E5400311C88540120FFF75BFE01340135D6E7CD
:100E640001B0F0BD0000000000000000244806C8E6
:100E74000B1C134305D000230B70491C9142FBD17A
:100E8400F5E72048C01C0323984306C80B1C1343F2
:100E940006D00378401C0B70491C9142F9D1F1E74C
:100EA40000B500F047F91848184900F001F800E0CF
:100EB400084717480078002811D1164800782A28D6
:100EC400F7D100211448016000F05AF901211348B8
:100ED4000160134800F001F800E00047E9E7002151
:100EE4000D4801600F4C1048084900F001F800E07B
:100EF40008472068E060E06800F070F9D9E700BDB9
:100F0400E4010800F4010800F7000800C509010025
:100F1400EC040100EA0401000801FFFF2002FFFFC6
:100F2400890D0100D0040100D40008000F402DE910
:100F340080809FE5008098E5040018E30900000A1A
:100F44000590A0E370809FE5009088E56C809FE5A4
:100F5400000098E568809FE50FE0A0E118FF2FE10D
:100F640060809FE50000C8E55C809FE5008098E50F
:100F7400080018E30D00000A50809FE5009098E5F2
:100F8400029829E2009088E50090A0E340809FE564
:100F9400009088E5AA90A0E338809FE50090C8E51A
:100FA40034809FE5009098E58090C9E3009088E53F
:100FB4000F40BDE804F05EE20807FFFF0407FFFFEF
:100FC4000007FFFF28090100EA0401000001FFFFF8
:100FD40030F4FFFF2C03FFFFEC0401002803FFFFA4
:100FE400164A1748016811430160164A16480168F9
:100FF4001143016002221548016811430160144A3B
:1010040014480168114301608021134801600B21D9
:10101400124801600021124801601249124801601F
:1010240003210D48016005210D4801600F49104856
:10103400016010490E4801607047C046000000205E
:1010440000F4FFFF0000787E20F4FFFF08F4FFFFA8
:101054000000000540F4FFFF0C07FFFF0007FFFF3F
:101064000407FFFF3E8800002C07FFFF0000040078
:1010740028F4FFFF0000020000B5021C134800F032
:1010840001F800E000471249124801601249134870
:101094000160134801600120124900F001F800E0EA
:1010A4000847101C0006000E0E4900F001F800E08D
:1010B40008470949094801600B4900F001F800E0BC
:1010C40008470006000E0128F6D000BD0D0C0100F3
:1010D4000000040044F4FFFF0000800034F4FFFF2C
:1010E40038F4FFFF9D0C0100910B010000B50A4A82
:1010F4000A48016811430160094A0A48016811431A
:10110400016009490948016005210948016000207E
:10111400FFF7B2FF00BDC0460000FCDF30F4FFFF64
:101124000000220204F4FFFF4F130000100AFFFF27
:101134000C0AFFFF00B50B4A0B480168114301601C
:101144000A4A0B48016811430160FFF749FF00F0A8
:101154002FF8FFF7CBFF074907480160082107482C
:10116400016000BD0000000230F4FFFF0000000C2D
:1011740060F4FFFF084000000801FFFF04F8FFFFD0
:1011840010B4094A094900200B1C1C68131C1C607C
:10119400131C04321B680B1C04311B680130031C34
:1011A400102BF1DB10BC70470000010000000800A8
:1011B400034904480160CF21034801607047C046D9
:1011C4006A1800002003FFFF2803FFFFFEFFFFEA69
:1011D400FEFFFFEAFEFFFFEAFEFFFFEA00470847C3
:0C11E4001047184720472847304738477D
:00000001FF
